:100000000C9463000C948B000C948B000C948B006C
:100010000C948B000C948B000C948B000C949D0220
:100020000C948B000C948B000C948B000C948B0024
:100030000C948B000C948B000C948B000C948B0014
:100040000C9453020C948B000C9444030C941E03E8
:100050000C948B000C948B000C948B000C948B00F4
:100060000C948B000C948B000200000000240027ED
:10007000002A0000000000250028002B00000000DE
:100080000800020100000304070000000000000057
:1000900000000000002300260029000404040404DA
:1000A0000404040202020202020303030303030125
:1000B00002040810204080010204081020010204FC
:1000C00008102000760311241FBECFEFD8E0DEBF5A
:1000D000CDBF11E0A0E0B1E0EEEBF0E102C0059091
:1000E0000D92A431B107D9F721E0A4E1B1E001C03C
:1000F0001D92A93EB207E1F710E0C3E6D0E004C0CC
:100100002197FE010E945208C236D107C9F70E940A
:10011000FA030C945D080C94000090E0FC01E35895
:10012000FF4F2491FC01E155FF4F3491FC01E5564E
:10013000FF4FE491EE23B9F1222339F1233091F0FE
:1001400038F42130A9F0223001F584B58F7D12C03A
:10015000273091F02830A1F02430B9F4809180004C
:100160008F7D03C0809180008F77809380000DC0C9
:1001700084B58F7784BD09C08091B0008F7703C0AC
:100180008091B0008F7D8093B000F0E0EE0FFF1FF4
:10019000ED58FF4FA591B4919FB7F8948C9130958D
:1001A00038233C939FBF0895CF93DF9390E0FC01E9
:1001B000E155FF4F2491FC01E556FF4F84918823C0
:1001C00061F190E0880F991FFC01E759FF4FC5913D
:1001D000D491FC01ED58FF4FA591B491611109C074
:1001E0009FB7F8948881209582238883EC912E23F1
:1001F0000BC0623061F49FB7F8948881322F30953C
:1002000083238883EC912E2B2C939FBF06C08FB73E
:10021000F894E8812E2B28838FBFDF91CF9108952A
:100220003FB7F89480912A0190912B01A0912C0165
:10023000B0912D0126B5A89B05C02F3F19F001965E
:10024000A11DB11D3FBFBA2FA92F982F8827820F5C
:10025000911DA11DB11DBC01CD0142E0660F771FAC
:10026000881F991F4A95D1F708952FB7F894609188
:1002700026017091270180912801909129012FBFBB
:100280000895CF92DF92EF92FF920F931F93CF9337
:10029000DF936C017A018B01C0E0D0E0CE15DF0561
:1002A00081F0D8016D918D01D601ED91FC91019005
:1002B000F081E02DC6010995892B11F02196EECF32
:1002C0007E01C701DF91CF911F910F91FF90EF90B9
:1002D000DF90CF900895089580E090E00895FC01AC
:1002E000538D448D252F30E0842F90E0821B930B9B
:1002F000541710F0CF96089501970895FC01918D41
:10030000828D981761F0828DDF01A80FB11D5D9677
:100310008C91928D9F5F9F73928F90E008958FEFE5
:100320009FEF0895FC01918D828D981731F0828D99
:10033000E80FF11D858D90E008958FEF9FEF0895F0
:10034000FC01918D228D892F90E0805C9F4F821B54
:1003500091098F73992708958EE291E00E94A00180
:1003600021E0892B09F420E0822F0895FC01848D7F
:10037000DF01A80FB11DA35ABF4F2C91848D90E0CF
:1003800001968F739927848FA689B7892C93A089AA
:10039000B1898C91837080648C93938D848D981334
:1003A00006C00288F389E02D80818F7D80830895C7
:1003B000EF92FF920F931F93CF93DF93EC0181E0B5
:1003C000888F9B8D8C8D981305C0E889F989808171
:1003D00085FD26C0F62E0B8D10E00F5F1F4F0F73AB
:1003E0001127E02E8C8DE8120CC00FB607FCFACF57
:1003F000E889F989808185FFF5CFCE010E94B60199
:10040000F1CF8B8DFE01E80FF11DE35AFF4FF08213
:100410009FB7F8940B8FEA89FB89808180620AC0BC
:100420009FB7F894EE89FF896083E889F989808114
:100430008370806480839FBF81E090E0DF91CF91E3
:100440001F910F91FF90EF900895CF93DF93EC01F0
:10045000888D8823C9F0EA89FB89808185FD05C0E4
:10046000A889B9898C9186FD0FC00FB607FCF5CF1E
:10047000808185FFF2CFA889B9898C9185FFEDCF66
:10048000CE010E94B601E7CFDF91CF91089580E0C1
:1004900090E0892B29F00E94AC0181110C9400009E
:1004A00008950E9458081F920F920FB60F921124C0
:1004B0002F933F938F939F93AF93BF938091260188
:1004C00090912701A0912801B09129013091250137
:1004D00023E0230F2D3720F40196A11DB11D05C087
:1004E00026E8230F0296A11DB11D209325018093BC
:1004F000260190932701A0932801B09329018091B0
:100500002A0190912B01A0912C01B0912D0101960F
:10051000A11DB11D80932A0190932B01A0932C0162
:10052000B0932D01BF91AF919F918F913F912F91EA
:100530000F900FBE0F901F9018951F920F920FB63D
:100540000F9211242F933F934F935F936F937F9359
:100550008F939F93AF93BF93EF93FF938091190174
:1005600090911A01A0911B01B0911C01892B8A2B3B
:100570008B2B59F190911401E0911501F091160126
:100580008081892780838091190190911A01A0911F
:100590001B01B0911C01181619061A061B060CF057
:1005A0003CC08091190190911A01A0911B01B0915A
:1005B0001C010197A109B1098093190190931A01B7
:1005C000A0931B01B0931C0128C080910001E8E6B4
:1005D000F0E0E4919FEF90930001E130B9F098F0E2
:1005E000E230C9F4909170009D7F9093700091E08B
:1005F0009093B0009091B100987F94609093B10077
:100600001092B30008C010926E0005C090916F0068
:100610009D7F90936F000E948D00FF91EF91BF919D
:10062000AF919F918F917F916F915F914F913F918A
:100630002F910F900FBE0F901F9018951F920F9241
:100640000FB60F9211242F933F934F935F936F93A5
:100650007F938F939F93AF93BF93EF93FF938EE21C
:1006600091E00E94B601FF91EF91BF91AF919F91F0
:100670008F917F916F915F914F913F912F910F904B
:100680000FBE0F901F9018951F920F920FB60F92EA
:1006900011242F938F939F93EF93FF93E0913E014B
:1006A000F0913F018081E0914401F091450182FD8C
:1006B00012C09081809147018F5F8F732091480114
:1006C000821751F0E0914701F0E0E25DFE4F958F17
:1006D0008093470101C08081FF91EF919F918F919D
:1006E0002F910F900FBE0F901F901895CF93DF930F
:1006F000EEE2F1E01382128288EE93E0A0E0B0E037
:1007000084839583A683B78385E091E0918380837A
:1007100085EC90E09587848784EC90E097878687C6
:1007200080EC90E0918B808B81EC90E0938B828BBE
:1007300082EC90E0958B848B86EC90E0978B868B97
:10074000118E128E138E148ECBECD1E081E090E0EE
:100750009983888386E391E09F838E8380EE95E77B
:10076000A9E0B0E088879987AA87BB8780E29EE4EA
:10077000A0E0B0E08C879D87AE87BF8761E082E014
:100780000E94D40060E083E00E94D40082E00E94D6
:100790008D00E1EBF0E0E491E88FEDE9F0E0E49129
:1007A000F0E0EE0FFF1FEF56FF4F859194919A8F67
:1007B000898FE2EBF0E0E491EB8FEEE9F0E0E49179
:1007C000F0E0EE0FFF1FEF56FF4F859194919D8F44
:1007D0008C8F8FEF9FEFAFEFBFE08A839B83AC835B
:1007E000BD830E943501688B798B8A8B9B8BDF914F
:1007F000CF910895789484B5826084BD84B581607A
:1008000084BD85B5826085BD85B5816085BD8091DB
:100810006E00816080936E00109281008091810053
:10082000826080938100809181008160809381004B
:10083000809180008160809380008091B10084600D
:100840008093B1008091B00081608093B00080916E
:100850007A00846080937A0080917A00826080932D
:100860007A0080917A00816080937A0080917A008A
:10087000806880937A001092C1008FEF9FEFDC01B7
:100880008093D7019093D801A093D901B093DA0156
:10089000E0913E01F0913F0182E08083E0913A01D6
:1008A000F0913B011082E0913C01F0913D018FEC11
:1008B000808310924601E0914201F091430186E06D
:1008C0008083E0914001F0914101808180618083CB
:1008D000E0914001F0914101808188608083E09146
:1008E0004001F0914101808180688083E091400166
:1008F000F091410180818F7D80831DEECC24CA94CC
:10090000DC2C760156EA252E50E0352ECAEBD0E0DD
:100910000E9435011092DF011092E0011092E10176
:100920001092E2018091CB019091CC0197FD31C1F1
:1009300028EBF894E091E401F091E5019281809137
:10094000E301809589238283E091E701F091E8013A
:1009500091818091E601809589238183E091E7016F
:10096000F091E80192818091E6018095892382834C
:10097000E091E701F091E80191818091E601892BF6
:100980008183E091E701F091E80192818091E60195
:1009900080958923828383E290E00197F1F7E091CB
:1009A000E701F091E80191818091E601809589232A
:1009B0008183E091E701F091E80192818091E60165
:1009C000809589238283E091E401F091E501928191
:1009D0008091E301892B82837894E091E701F09183
:1009E000E8013091E6014091D3015091D40160912A
:1009F000D5017091D601008103238091DF01909190
:100A0000E001A091E101B091E201011111C0841750
:100A10009507A607B70760F40196A11DB11D809345
:100A2000DF019093E001A093E101B093E201E3CFF5
:100A3000481759076A077B0708F4ABC0F894E091A0
:100A4000E701F091E80192818091E601892B828390
:100A5000E091E701F091E80191818091E601892B15
:100A60008183E091E701F091E80192818091E601B4
:100A7000892B8283E091E701F091E80191818091D7
:100A8000E601809589238183E091E701F091E801F7
:100A900092818091E601809589238283E091E4012F
:100AA000F091E50192818091E30180958923828311
:100AB0007894E091E701F091E8013091E6014091EE
:100AC000D3015091D4016091D5017091D60100817C
:100AD00003238091DF019091E001A091E101B091A9
:100AE000E20101117FC084179507A607B70708F038
:100AF00050C0215009F01DCF0E9435018090DB01CC
:100B00009090DC01A090DD01B090DE01DC01CB0112
:100B100088199909AA09BB098090D7019090D8013A
:100B2000A090D901B090DA0188169906AA06BB06F2
:100B300008F46AC08091DF019091E001A091E10189
:100B4000B091E2014091CD015091CE016091CF0171
:100B50007091D00184179507A607B70740F48093DA
:100B6000CD019093CE01A093CF01B093D0014091DD
:100B7000CD015091CE016091CF017091D001841BC5
:100B8000950BA60BB70B853F9140A105B1050CF065
:100B90006DC00E9410012B013C018AE0882E912C2F
:100BA000A12CB12C0E941001DC01CB018419950904
:100BB000A609B709883E9340A105B10598F391E0D5
:100BC000891A9108A108B108A8EE4A0EA3E05A1E9E
:100BD000611C711C81149104A104B10419F70E94D5
:100BE000470296CE84179507A607B70708F07BCF74
:100BF0000196A11DB11D8093DF019093E001A093A8
:100C0000E101B093E20163CF8090DF019090E001B9
:100C1000A090E101B090E2016091CD017091CE0110
:100C20008091CF019091D00186169706A806B9064B
:100C300029F0861A970AA80AB90A03C0812C912CB8
:100C400054010E9457072DEC3CEC4CEC5DE30E94F4
:100C5000BD070E942107CB01770FAA0BBB0B88169B
:100C60009906AA06BB0608F4BAC064CF80910001B9
:100C70008B3021F08F3F09F08CCF04C0E8E6F0E024
:100C8000049171C08BE080930001E8E6F0E00491EC
:100C90000F3F09F47ECF013009F444C040F1023027
:100CA00009F061C01092B0001092B1008091B000C4
:100CB00082608093B0008091B10081608093B10028
:100CC000F1018491E82FF0E0EE0FFF1FED58FF4F88
:100CD000859194919093160180931501FE01849162
:100CE0008093140161E08BE00E94D400A2C014BC88
:100CF00015BC84B5826084BD85B5816085BDF10178
:100D00008491E82FF0E0EE0FFF1FED58FF4F859123
:100D10009491FE0184918093180161E08BE00E9420
:100D2000D40074C0109280001092810080918100E4
:100D30008860809381008091810081608093810030
:100D4000F1018491E82FF0E0EE0FFF1FED58FF4F07
:100D500085919491FE0184918093170161E08BE06D
:100D60000E94D4000EC007FD14CF61E08BE00E940A
:100D7000D400002309F44AC0023009F45AC00130FB
:100D8000D1F480918100887F8160809381008BE81D
:100D90009EEE9093890080938800C0921D01D092AE
:100DA0001E01E0921F01F092200180916F0082608D
:100DB00080936F00EECE023009F0EBCE8BE880938B
:100DC000B300C0921901D0921A01E0921B01F09277
:100DD0001C0180917000826080937000DACE8FEFEA
:100DE0009FEFAFEFBFE08093CD019093CE01A09332
:100DF000CF01B093D0010E9435016093DB01709365
:100E0000DC018093DD019093DE0194CE85B5887F6F
:100E1000846085BD17BDC0922101D0922201E0926D
:100E20002301F092240180916E00826080936E0015
:100E3000B0CE8091B100887F86608093B1008DEE46
:100E4000BECF0E9428076894B1110C94B70708958B
:100E50000E949C0788F09F5798F0B92F9927B751A7
:100E6000B0F0E1F0660F771F881F991F1AF0BA954E
:100E7000C9F714C0B13091F00E94B607B1E00895EF
:100E80000C94B607672F782F8827B85F39F0B93FE1
:100E9000CCF3869577956795B395D9F73EF4909501
:100EA0008095709561957F4F8F4F9F4F0895E8947F
:100EB00009C097FB3EF490958095709561957F4FA2
:100EC0008F4F9F4F9923A9F0F92F96E9BB27939550
:100ED000F695879577956795B795F111F8CFFAF460
:100EE000BB0F11F460FF1BC06F5F7F4F8F4F9F4F91
:100EF00016C0882311F096E911C0772321F09EE8EF
:100F0000872F762F05C0662371F096E8862F70E054
:100F100060E02AF09A95660F771F881FDAF7880F2E
:100F20009695879597F9089557FD9058440F551F4A
:100F300059F05F3F71F04795880F97FB991F61F05B
:100F40009F3F79F087950895121613061406551FD2
:100F5000F2CF4695F1DF08C0161617061806991F3E
:100F6000F1CF86957105610508940895E894BB2733
:100F700066277727CB0197F908950E94D0070C9434
:100F800041080E94330838F00E943A0820F0952367
:100F900011F00C942A080C94300811240C94B70713
:100FA0000E94940770F3959FC1F3950F50E0551F71
:100FB000629FF001729FBB27F00DB11D639FAA27AE
:100FC000F00DB11DAA1F649F6627B00DA11D661FFD
:100FD000829F2227B00DA11D621F739FB00DA11D1E
:100FE000621F839FA00D611D221F749F3327A00DD8
:100FF000611D231F849F600D211D822F762F6A2F74
:1010000011249F5750409AF0F1F088234AF0EE0FD8
:10101000FF1FBB1F661F771F881F91505040A9F705
:101020009E3F510580F00C942A080C94B7075F3F4F
:10103000E4F3983ED4F3869577956795B795F79541
:10104000E7959F5FC1F7FE2B880F911D96958795B9
:1010500097F9089597F99F6780E870E060E0089538
:101060009FEF80EC089500240A94161617061806C0
:101070000906089500240A9412161306140605069C
:101080000895092E0394000C11F4882352F0BB0F2D
:1010900040F4BF2B11F460FF04C06F5F7F4F8F4F90
:1010A0009F4F0895EE0FFF1F0590F491E02D0994D6
:0E10B00081E090E0F8940C945D08F894FFCF76
:1010BE00FF00000000D80141016F012502A0017E52
:0410CE00019201008A
:107E0000112484B714BE81FFF0D085E080938100F7
:107E100082E08093C00088E18093C10086E0809377
:107E2000C20080E18093C4008EE0C9D0259A86E02C
:107E300020E33CEF91E0309385002093840096BBD3
:107E4000B09BFECF1D9AA8958150A9F7CC24DD24C4
:107E500088248394B5E0AB2EA1E19A2EF3E0BF2EE7
:107E6000A2D0813461F49FD0082FAFD0023811F036
:107E7000013811F484E001C083E08DD089C08234E0
:107E800011F484E103C0853419F485E0A6D080C0E4
:107E9000853579F488D0E82EFF2485D0082F10E0AE
:107EA000102F00270E291F29000F111F8ED06801E7
:107EB0006FC0863521F484E090D080E0DECF843638
:107EC00009F040C070D06FD0082F6DD080E0C81688
:107ED00080E7D80618F4F601B7BEE895C0E0D1E017
:107EE00062D089930C17E1F7F0E0CF16F0E7DF06D8
:107EF00018F0F601B7BEE89568D007B600FCFDCFD4
:107F0000A601A0E0B1E02C9130E011968C91119780
:107F100090E0982F8827822B932B1296FA010C0160
:107F200087BEE89511244E5F5F4FF1E0A038BF0790
:107F300051F7F601A7BEE89507B600FCFDCF97BE46
:107F4000E89526C08437B1F42ED02DD0F82E2BD052
:107F50003CD0F601EF2C8F010F5F1F4F84911BD097
:107F6000EA94F801C1F70894C11CD11CFA94CF0C13
:107F7000D11C0EC0853739F428D08EE10CD085E9AC
:107F80000AD08FE07ACF813511F488E018D01DD067
:107F900080E101D065CF982F8091C00085FFFCCF94
:107FA0009093C60008958091C00087FFFCCF809118
:107FB000C00084FD01C0A8958091C6000895E0E648
:107FC000F0E098E1908380830895EDDF803219F02E
:107FD00088E0F5DFFFCF84E1DECF1F93182FE3DFCA
:107FE0001150E9F7F2DF1F91089580E0E8DFEE27F6
:047FF000FF270994CA
:027FFE00040479
:0400000300007E007B
:00000001FF
